{
  "_format": "hh-sol-artifact-1",
  "contractName": "DappVotes",
  "sourceName": "contracts/DappVotes.sol",
  "abi": [
    {
      "anonymous": false,
      "inputs": [
        {
          "indexed": true,
          "internalType": "address",
          "name": "voter",
          "type": "address"
        },
        {
          "indexed": false,
          "internalType": "uint256",
          "name": "timestamp",
          "type": "uint256"
        }
      ],
      "name": "Voted",
      "type": "event"
    },
    {
      "inputs": [
        {
          "internalType": "uint256",
          "name": "id",
          "type": "uint256"
        },
        {
          "internalType": "string",
          "name": "name",
          "type": "string"
        },
        {
          "internalType": "string",
          "name": "image",
          "type": "string"
        }
      ],
      "name": "contest",
      "outputs": [],
      "stateMutability": "nonpayable",
      "type": "function"
    },
    {
      "inputs": [
        {
          "internalType": "string",
          "name": "image",
          "type": "string"
        },
        {
          "internalType": "string",
          "name": "title",
          "type": "string"
        },
        {
          "internalType": "string",
          "name": "description",
          "type": "string"
        },
        {
          "internalType": "uint256",
          "name": "startsAt",
          "type": "uint256"
        },
        {
          "internalType": "uint256",
          "name": "endsAt",
          "type": "uint256"
        }
      ],
      "name": "createPoll",
      "outputs": [],
      "stateMutability": "nonpayable",
      "type": "function"
    },
    {
      "inputs": [
        {
          "internalType": "uint256",
          "name": "id",
          "type": "uint256"
        }
      ],
      "name": "deletePoll",
      "outputs": [],
      "stateMutability": "nonpayable",
      "type": "function"
    },
    {
      "inputs": [
        {
          "internalType": "uint256",
          "name": "id",
          "type": "uint256"
        },
        {
          "internalType": "uint256",
          "name": "cid",
          "type": "uint256"
        }
      ],
      "name": "getContestant",
      "outputs": [
        {
          "components": [
            {
              "internalType": "uint256",
              "name": "id",
              "type": "uint256"
            },
            {
              "internalType": "string",
              "name": "image",
              "type": "string"
            },
            {
              "internalType": "string",
              "name": "name",
              "type": "string"
            },
            {
              "internalType": "address",
              "name": "voter",
              "type": "address"
            },
            {
              "internalType": "uint256",
              "name": "votes",
              "type": "uint256"
            },
            {
              "internalType": "address[]",
              "name": "voters",
              "type": "address[]"
            }
          ],
          "internalType": "struct DappVotes.ContestantStruct",
          "name": "",
          "type": "tuple"
        }
      ],
      "stateMutability": "view",
      "type": "function"
    },
    {
      "inputs": [
        {
          "internalType": "uint256",
          "name": "id",
          "type": "uint256"
        }
      ],
      "name": "getContestants",
      "outputs": [
        {
          "components": [
            {
              "internalType": "uint256",
              "name": "id",
              "type": "uint256"
            },
            {
              "internalType": "string",
              "name": "image",
              "type": "string"
            },
            {
              "internalType": "string",
              "name": "name",
              "type": "string"
            },
            {
              "internalType": "address",
              "name": "voter",
              "type": "address"
            },
            {
              "internalType": "uint256",
              "name": "votes",
              "type": "uint256"
            },
            {
              "internalType": "address[]",
              "name": "voters",
              "type": "address[]"
            }
          ],
          "internalType": "struct DappVotes.ContestantStruct[]",
          "name": "Contestants",
          "type": "tuple[]"
        }
      ],
      "stateMutability": "view",
      "type": "function"
    },
    {
      "inputs": [
        {
          "internalType": "uint256",
          "name": "id",
          "type": "uint256"
        }
      ],
      "name": "getPoll",
      "outputs": [
        {
          "components": [
            {
              "internalType": "uint256",
              "name": "id",
              "type": "uint256"
            },
            {
              "internalType": "string",
              "name": "image",
              "type": "string"
            },
            {
              "internalType": "string",
              "name": "title",
              "type": "string"
            },
            {
              "internalType": "string",
              "name": "description",
              "type": "string"
            },
            {
              "internalType": "uint256",
              "name": "votes",
              "type": "uint256"
            },
            {
              "internalType": "uint256",
              "name": "contestants",
              "type": "uint256"
            },
            {
              "internalType": "bool",
              "name": "deleted",
              "type": "bool"
            },
            {
              "internalType": "address",
              "name": "director",
              "type": "address"
            },
            {
              "internalType": "uint256",
              "name": "startsAt",
              "type": "uint256"
            },
            {
              "internalType": "uint256",
              "name": "endsAt",
              "type": "uint256"
            },
            {
              "internalType": "uint256",
              "name": "timestamp",
              "type": "uint256"
            },
            {
              "internalType": "address[]",
              "name": "voters",
              "type": "address[]"
            },
            {
              "internalType": "string[]",
              "name": "avatars",
              "type": "string[]"
            }
          ],
          "internalType": "struct DappVotes.PollStruct",
          "name": "",
          "type": "tuple"
        }
      ],
      "stateMutability": "view",
      "type": "function"
    },
    {
      "inputs": [],
      "name": "getPolls",
      "outputs": [
        {
          "components": [
            {
              "internalType": "uint256",
              "name": "id",
              "type": "uint256"
            },
            {
              "internalType": "string",
              "name": "image",
              "type": "string"
            },
            {
              "internalType": "string",
              "name": "title",
              "type": "string"
            },
            {
              "internalType": "string",
              "name": "description",
              "type": "string"
            },
            {
              "internalType": "uint256",
              "name": "votes",
              "type": "uint256"
            },
            {
              "internalType": "uint256",
              "name": "contestants",
              "type": "uint256"
            },
            {
              "internalType": "bool",
              "name": "deleted",
              "type": "bool"
            },
            {
              "internalType": "address",
              "name": "director",
              "type": "address"
            },
            {
              "internalType": "uint256",
              "name": "startsAt",
              "type": "uint256"
            },
            {
              "internalType": "uint256",
              "name": "endsAt",
              "type": "uint256"
            },
            {
              "internalType": "uint256",
              "name": "timestamp",
              "type": "uint256"
            },
            {
              "internalType": "address[]",
              "name": "voters",
              "type": "address[]"
            },
            {
              "internalType": "string[]",
              "name": "avatars",
              "type": "string[]"
            }
          ],
          "internalType": "struct DappVotes.PollStruct[]",
          "name": "Polls",
          "type": "tuple[]"
        }
      ],
      "stateMutability": "view",
      "type": "function"
    },
    {
      "inputs": [
        {
          "internalType": "uint256",
          "name": "id",
          "type": "uint256"
        },
        {
          "internalType": "string",
          "name": "image",
          "type": "string"
        },
        {
          "internalType": "string",
          "name": "title",
          "type": "string"
        },
        {
          "internalType": "string",
          "name": "description",
          "type": "string"
        },
        {
          "internalType": "uint256",
          "name": "startsAt",
          "type": "uint256"
        },
        {
          "internalType": "uint256",
          "name": "endsAt",
          "type": "uint256"
        }
      ],
      "name": "updatePoll",
      "outputs": [],
      "stateMutability": "nonpayable",
      "type": "function"
    },
    {
      "inputs": [
        {
          "internalType": "uint256",
          "name": "id",
          "type": "uint256"
        },
        {
          "internalType": "uint256",
          "name": "cid",
          "type": "uint256"
        }
      ],
      "name": "vote",
      "outputs": [],
      "stateMutability": "nonpayable",
      "type": "function"
    }
  ],
  "bytecode": "0x608060405234801561001057600080fd5b5061247e806100206000396000f3fe608060405234801561001057600080fd5b50600436106100935760003560e01c806366dd51dc1161006657806366dd51dc146100fe578063b384abef14610111578063cee9dc4514610124578063d343641114610144578063f0d0bc451461016457600080fd5b8063029433f014610098578063120fe89b146100ad5780631a8cbcaa146100cb5780631f35b51d146100eb575b600080fd5b6100ab6100a6366004611cd7565b610177565b005b6100b5610416565b6040516100c29190611f53565b60405180910390f35b6100de6100d9366004611fb5565b610891565b6040516100c29190611fce565b6100ab6100f9366004611fb5565b610c13565b6100ab61010c366004611fe8565b610cf4565b6100ab61011f366004612055565b610f7e565b610137610132366004611fb5565b61125b565b6040516100c291906120ee565b610157610152366004612055565b61155f565b6040516100c29190612143565b6100ab610172366004612156565b61175a565b60008681526002602052604090205460ff166101ae5760405162461bcd60e51b81526004016101a5906121f0565b60405180910390fd5b60008681526003602052604090206006015461010090046001600160a01b031633146102125760405162461bcd60e51b8152602060048201526013602482015272556e617574686f72697a656420656e7469747960681b60448201526064016101a5565b600084511161025b5760405162461bcd60e51b81526020600482015260156024820152745469746c652063616e6e6f7420626520656d70747960581b60448201526064016101a5565b60008351116102ac5760405162461bcd60e51b815260206004820152601b60248201527f4465736372697074696f6e2063616e6e6f7420626520656d707479000000000060448201526064016101a5565b60008551116102f95760405162461bcd60e51b8152602060048201526019602482015278496d6167652055524c2063616e6e6f7420626520656d70747960381b60448201526064016101a5565b60008681526003602052604090206006015460ff161561035b5760405162461bcd60e51b815260206004820152601760248201527f506f6c6c696e6720616c72656164792064656c6574656400000000000000000060448201526064016101a5565b60008681526003602052604090206004015460011161038c5760405162461bcd60e51b81526004016101a590612218565b8181116103ab5760405162461bcd60e51b81526004016101a590612248565b60008681526003602052604090206002016103c68582612319565b506000868152600360208190526040909120016103e38482612319565b506000868152600360205260409020600781018390556008810182905560010161040d8682612319565b50505050505050565b6060600060015b600054811161045f5760008181526003602052604090206006015460ff1661044d5781610449816123ef565b9250505b80610457816123ef565b91505061041d565b508067ffffffffffffffff81111561047957610479611c34565b6040519080825280602002602001820160405280156104b257816020015b61049f611a5c565b8152602001906001900390816104975790505b509150600060015b600054811161088b5760008181526003602052604090206006015460ff166108795760036000828152602001908152602001600020604051806101a00160405290816000820154815260200160018201805461051590612290565b80601f016020809104026020016040519081016040528092919081815260200182805461054190612290565b801561058e5780601f106105635761010080835404028352916020019161058e565b820191906000526020600020905b81548152906001019060200180831161057157829003601f168201915b505050505081526020016002820180546105a790612290565b80601f01602080910402602001604051908101604052809291908181526020018280546105d390612290565b80156106205780601f106105f557610100808354040283529160200191610620565b820191906000526020600020905b81548152906001019060200180831161060357829003601f168201915b5050505050815260200160038201805461063990612290565b80601f016020809104026020016040519081016040528092919081815260200182805461066590612290565b80156106b25780601f10610687576101008083540402835291602001916106b2565b820191906000526020600020905b81548152906001019060200180831161069557829003601f168201915b505050918352505060048201546020808301919091526005830154604080840191909152600684015460ff8116151560608501526001600160a01b0361010091829004166080850152600785015460a0850152600885015460c0850152600985015460e0850152600a850180548351818602810186019094528084529190940193919283018282801561076e57602002820191906000526020600020905b81546001600160a01b03168152600190910190602001808311610750575b50505050508152602001600b8201805480602002602001604051908101604052809291908181526020016000905b828210156108485783829060005260206000200180546107bb90612290565b80601f01602080910402602001604051908101604052809291908181526020018280546107e790612290565b80156108345780601f1061080957610100808354040283529160200191610834565b820191906000526020600020905b81548152906001019060200180831161081757829003601f168201915b50505050508152602001906001019061079c565b5050509152508590508361085b816123ef565b94508151811061086d5761086d612408565b60200260200101819052505b80610883816123ef565b9150506104ba565b50505090565b610899611a5c565b60036000838152602001908152602001600020604051806101a0016040529081600082015481526020016001820180546108d290612290565b80601f01602080910402602001604051908101604052809291908181526020018280546108fe90612290565b801561094b5780601f106109205761010080835404028352916020019161094b565b820191906000526020600020905b81548152906001019060200180831161092e57829003601f168201915b5050505050815260200160028201805461096490612290565b80601f016020809104026020016040519081016040528092919081815260200182805461099090612290565b80156109dd5780601f106109b2576101008083540402835291602001916109dd565b820191906000526020600020905b8154815290600101906020018083116109c057829003601f168201915b505050505081526020016003820180546109f690612290565b80601f0160208091040260200160405190810160405280929190818152602001828054610a2290612290565b8015610a6f5780601f10610a4457610100808354040283529160200191610a6f565b820191906000526020600020905b815481529060010190602001808311610a5257829003601f168201915b505050918352505060048201546020808301919091526005830154604080840191909152600684015460ff8116151560608501526001600160a01b0361010091829004166080850152600785015460a0850152600885015460c0850152600985015460e0850152600a8501805483518186028101860190945280845291909401939192830182828015610b2b57602002820191906000526020600020905b81546001600160a01b03168152600190910190602001808311610b0d575b50505050508152602001600b8201805480602002602001604051908101604052809291908181526020016000905b82821015610c05578382906000526020600020018054610b7890612290565b80601f0160208091040260200160405190810160405280929190818152602001828054610ba490612290565b8015610bf15780601f10610bc657610100808354040283529160200191610bf1565b820191906000526020600020905b815481529060010190602001808311610bd457829003601f168201915b505050505081526020019060010190610b59565b505050915250909392505050565b60008181526002602052604090205460ff16610c415760405162461bcd60e51b81526004016101a5906121f0565b60008181526003602052604090206006015461010090046001600160a01b03163314610ca55760405162461bcd60e51b8152602060048201526013602482015272556e617574686f72697a656420656e7469747960681b60448201526064016101a5565b600081815260036020526040902060040154600111610cd65760405162461bcd60e51b81526004016101a590612218565b6000908152600360205260409020600601805460ff19166001179055565b60008381526002602052604090205460ff16610d225760405162461bcd60e51b81526004016101a5906121f0565b6000825111610d6a5760405162461bcd60e51b81526020600482015260146024820152736e616d652063616e6e6f7420626520656d70747960601b60448201526064016101a5565b6000815111610db35760405162461bcd60e51b8152602060048201526015602482015274696d6167652063616e6e6f7420626520656d70747960581b60448201526064016101a5565b600083815260036020526040902060040154600111610de45760405162461bcd60e51b81526004016101a590612218565b600083815260056020908152604080832033845290915290205460ff1615610e425760405162461bcd60e51b8152602060048201526011602482015270105b1c9958591e4818dbdb9d195cdd1959607a1b60448201526064016101a5565b60018054906000610e52836123ef565b9190505550610e5f611acf565b6040808201849052602080830184815233606085015260018054855260008881526006845284812086518252909352929091208351815590518392820190610ea79082612319565b5060408201516002820190610ebc9082612319565b5060608201516003820180546001600160a01b0319166001600160a01b039092169190911790556080820151600482015560a08201518051610f08916005840191602090910190611b0e565b50505060008481526005602090815260408083203384528252808320805460ff1916600190811790915587845260038352908320600b01805491820181558352912001610f558382612319565b506000848152600360205260408120600501805491610f73836123ef565b919050555050505050565b60008281526002602052604090205460ff16610fac5760405162461bcd60e51b81526004016101a5906121f0565b600082815260046020908152604080832033845290915290205460ff16156110065760405162461bcd60e51b815260206004820152600d60248201526c105b1c9958591e481d9bdd1959609a1b60448201526064016101a5565b60008281526003602052604090206006015460ff16156110605760405162461bcd60e51b8152602060048201526015602482015274506f6c6c696e67206e6f7420617661696c61626c6560581b60448201526064016101a5565b6000828152600360205260409020600501546001106110ba5760405162461bcd60e51b81526020600482015260166024820152754e6f7420656e6f75676820636f6e74657374616e747360501b60448201526064016101a5565b6000828152600360205260409020600701546110d4611a3d565b101580156110f957506000828152600360205260409020600801546110f7611a3d565b105b6111455760405162461bcd60e51b815260206004820152601960248201527f566f74696e67206d75737420626520696e2073657373696f6e0000000000000060448201526064016101a5565b6000828152600360205260408120600401805491611162836123ef565b90915550506000828152600360209081526040808320600a0180546001810182559084528284200180546001600160a01b031916331790558483526006825280832084845290915281206004018054916111bb836123ef565b9091555050600082815260066020908152604080832084845282528083206005018054600181810183559185528385200180546001600160a01b03191633908117909155868552600484528285208186529093529220805460ff19169092179091557f4d99b957a2bc29a30ebd96a7be8e68fe50a3c701db28a91436490b7d53870ca4611246611a3d565b60405190815260200160405180910390a25050565b6060600060015b60015481116112ac57600084815260066020908152604080832084845290915290205481900361129a5781611296816123ef565b9250505b806112a4816123ef565b915050611262565b508067ffffffffffffffff8111156112c6576112c6611c34565b6040519080825280602002602001820160405280156112ff57816020015b6112ec611acf565b8152602001906001900390816112e45790505b509150600060015b6001548111611557576000858152600660209081526040808320848452909152902054819003611545576000858152600660209081526040808320848452825291829020825160c0810190935280548352600181018054919284019161136c90612290565b80601f016020809104026020016040519081016040528092919081815260200182805461139890612290565b80156113e55780601f106113ba576101008083540402835291602001916113e5565b820191906000526020600020905b8154815290600101906020018083116113c857829003601f168201915b505050505081526020016002820180546113fe90612290565b80601f016020809104026020016040519081016040528092919081815260200182805461142a90612290565b80156114775780601f1061144c57610100808354040283529160200191611477565b820191906000526020600020905b81548152906001019060200180831161145a57829003601f168201915b505050505081526020016003820160009054906101000a90046001600160a01b03166001600160a01b03166001600160a01b03168152602001600482015481526020016005820180548060200260200160405190810160405280929190818152602001828054801561151257602002820191906000526020600020905b81546001600160a01b031681526001909101906020018083116114f4575b505050505081525050848380611527906123ef565b94508151811061153957611539612408565b60200260200101819052505b8061154f816123ef565b915050611307565b505050919050565b611567611acf565b6000838152600660209081526040808320858452825291829020825160c081019093528054835260018101805491928401916115a290612290565b80601f01602080910402602001604051908101604052809291908181526020018280546115ce90612290565b801561161b5780601f106115f05761010080835404028352916020019161161b565b820191906000526020600020905b8154815290600101906020018083116115fe57829003601f168201915b5050505050815260200160028201805461163490612290565b80601f016020809104026020016040519081016040528092919081815260200182805461166090612290565b80156116ad5780601f10611682576101008083540402835291602001916116ad565b820191906000526020600020905b81548152906001019060200180831161169057829003601f168201915b505050505081526020016003820160009054906101000a90046001600160a01b03166001600160a01b03166001600160a01b03168152602001600482015481526020016005820180548060200260200160405190810160405280929190818152602001828054801561174857602002820191906000526020600020905b81546001600160a01b0316815260019091019060200180831161172a575b50505050508152505090505b92915050565b60008451116117a35760405162461bcd60e51b81526020600482015260156024820152745469746c652063616e6e6f7420626520656d70747960581b60448201526064016101a5565b60008351116117f45760405162461bcd60e51b815260206004820152601b60248201527f4465736372697074696f6e2063616e6e6f7420626520656d707479000000000060448201526064016101a5565b60008551116118415760405162461bcd60e51b8152602060048201526019602482015278496d6167652055524c2063616e6e6f7420626520656d70747960381b60448201526064016101a5565b6000821161189b5760405162461bcd60e51b815260206004820152602160248201527f53746172742064617465206d7573742062652067726561746572207468616e206044820152600360fc1b60648201526084016101a5565b8181116118ba5760405162461bcd60e51b81526004016101a590612248565b6000805490806118c9836123ef565b91905055506118d6611a5c565b6000548152604081018590526060810184905260208101869052610100810183905261012081018290523360e082015261190e611a3d565b61014082015280516000908152600360209081526040909120825181559082015182919060018201906119419082612319565b50604082015160028201906119569082612319565b506060820151600382019061196b9082612319565b506080820151600482015560a0820151600582015560c082015160068201805460e08501516001600160a81b0319909116921515610100600160a81b031916929092176101006001600160a01b03909316830217905582015160078201556101208201516008820155610140820151600982015561016082015180516119fb91600a840191602090910190611b0e565b506101808201518051611a1891600b840191602090910190611b73565b505090516000908152600260205260409020805460ff19166001179055505050505050565b6000611a4b426103e861241e565b611a57906103e8612435565b905090565b604051806101a0016040528060008152602001606081526020016060815260200160608152602001600081526020016000815260200160001515815260200160006001600160a01b0316815260200160008152602001600081526020016000815260200160608152602001606081525090565b6040518060c0016040528060008152602001606081526020016060815260200160006001600160a01b0316815260200160008152602001606081525090565b828054828255906000526020600020908101928215611b63579160200282015b82811115611b6357825182546001600160a01b0319166001600160a01b03909116178255602090920191600190910190611b2e565b50611b6f929150611bc5565b5090565b828054828255906000526020600020908101928215611bb9579160200282015b82811115611bb95782518290611ba99082612319565b5091602001919060010190611b93565b50611b6f929150611bda565b5b80821115611b6f5760008155600101611bc6565b80821115611b6f576000611bee8282611bf7565b50600101611bda565b508054611c0390612290565b6000825580601f10611c13575050565b601f016020900490600052602060002090810190611c319190611bc5565b50565b634e487b7160e01b600052604160045260246000fd5b600082601f830112611c5b57600080fd5b813567ffffffffffffffff80821115611c7657611c76611c34565b604051601f8301601f19908116603f01168101908282118183101715611c9e57611c9e611c34565b81604052838152866020858801011115611cb757600080fd5b836020870160208301376000602085830101528094505050505092915050565b60008060008060008060c08789031215611cf057600080fd5b86359550602087013567ffffffffffffffff80821115611d0f57600080fd5b611d1b8a838b01611c4a565b96506040890135915080821115611d3157600080fd5b611d3d8a838b01611c4a565b95506060890135915080821115611d5357600080fd5b50611d6089828a01611c4a565b9350506080870135915060a087013590509295509295509295565b6000815180845260005b81811015611da157602081850181015186830182015201611d85565b506000602082860101526020601f19601f83011685010191505092915050565b600081518084526020808501945080840160005b83811015611dfa5781516001600160a01b031687529582019590820190600101611dd5565b509495945050505050565b600081518084526020808501808196508360051b8101915082860160005b85811015611e4d578284038952611e3b848351611d7b565b98850198935090840190600101611e23565b5091979650505050505050565b60006101a0825184526020830151816020860152611e7a82860182611d7b565b91505060408301518482036040860152611e948282611d7b565b91505060608301518482036060860152611eae8282611d7b565b9150506080830151608085015260a083015160a085015260c0830151611ed860c086018215159052565b5060e0830151611ef360e08601826001600160a01b03169052565b506101008381015190850152610120808401519085015261014080840151908501526101608084015185830382870152611f2d8382611dc1565b925050506101808084015185830382870152611f498382611e05565b9695505050505050565b6000602080830181845280855180835260408601915060408160051b870101925083870160005b82811015611fa857603f19888603018452611f96858351611e5a565b94509285019290850190600101611f7a565b5092979650505050505050565b600060208284031215611fc757600080fd5b5035919050565b602081526000611fe16020830184611e5a565b9392505050565b600080600060608486031215611ffd57600080fd5b83359250602084013567ffffffffffffffff8082111561201c57600080fd5b61202887838801611c4a565b9350604086013591508082111561203e57600080fd5b5061204b86828701611c4a565b9150509250925092565b6000806040838503121561206857600080fd5b50508035926020909101359150565b805182526000602082015160c0602085015261209660c0850182611d7b565b9050604083015184820360408601526120af8282611d7b565b91505060018060a01b0360608401511660608501526080830151608085015260a083015184820360a08601526120e58282611dc1565b95945050505050565b6000602080830181845280855180835260408601915060408160051b870101925083870160005b82811015611fa857603f19888603018452612131858351612077565b94509285019290850190600101612115565b602081526000611fe16020830184612077565b600080600080600060a0868803121561216e57600080fd5b853567ffffffffffffffff8082111561218657600080fd5b61219289838a01611c4a565b965060208801359150808211156121a857600080fd5b6121b489838a01611c4a565b955060408801359150808211156121ca57600080fd5b506121d788828901611c4a565b9598949750949560608101359550608001359392505050565b6020808252600e908201526d141bdb1b081b9bdd08199bdd5b9960921b604082015260600190565b602080825260169082015275506f6c6c2068617320766f74657320616c726561647960501b604082015260600190565b60208082526028908201527f456e642064617465206d7573742062652067726561746572207468616e207374604082015267617274206461746560c01b606082015260800190565b600181811c908216806122a457607f821691505b6020821081036122c457634e487b7160e01b600052602260045260246000fd5b50919050565b601f82111561231457600081815260208120601f850160051c810160208610156122f15750805b601f850160051c820191505b81811015612310578281556001016122fd565b5050505b505050565b815167ffffffffffffffff81111561233357612333611c34565b612347816123418454612290565b846122ca565b602080601f83116001811461237c57600084156123645750858301515b600019600386901b1c1916600185901b178555612310565b600085815260208120601f198616915b828110156123ab5788860151825594840194600190910190840161238c565b50858210156123c95787850151600019600388901b60f8161c191681555b5050505050600190811b01905550565b634e487b7160e01b600052601160045260246000fd5b600060018201612401576124016123d9565b5060010190565b634e487b7160e01b600052603260045260246000fd5b8082028115828204841417611754576117546123d9565b80820180821115611754576117546123d956fea264697066735822122064f03b649578532d392ec803839149e8d17ffe0ee41b7e6ce4926c4fd4fff11664736f6c63430008110033",
  "linkReferences": {},
  "deployedLinkReferences": {}
}