{
  "_format": "hh-sol-artifact-1",
  "contractName": "Voting",
  "sourceName": "contracts/Voting.sol",
  "abi": [
    {
      "anonymous": false,
      "inputs": [
        {
          "indexed": true,
          "internalType": "address",
          "name": "voter",
          "type": "address"
        },
        {
          "indexed": false,
          "internalType": "uint256",
          "name": "timestamp",
          "type": "uint256"
        }
      ],
      "name": "Voted",
      "type": "event"
    },
    {
      "inputs": [
        {
          "internalType": "uint256",
          "name": "id",
          "type": "uint256"
        },
        {
          "internalType": "string",
          "name": "name",
          "type": "string"
        },
        {
          "internalType": "string",
          "name": "image",
          "type": "string"
        }
      ],
      "name": "contest",
      "outputs": [],
      "stateMutability": "nonpayable",
      "type": "function"
    },
    {
      "inputs": [
        {
          "internalType": "string",
          "name": "image",
          "type": "string"
        },
        {
          "internalType": "string",
          "name": "title",
          "type": "string"
        },
        {
          "internalType": "string",
          "name": "description",
          "type": "string"
        },
        {
          "internalType": "uint256",
          "name": "startsAt",
          "type": "uint256"
        },
        {
          "internalType": "uint256",
          "name": "endsAt",
          "type": "uint256"
        }
      ],
      "name": "createPoll",
      "outputs": [],
      "stateMutability": "nonpayable",
      "type": "function"
    },
    {
      "inputs": [
        {
          "internalType": "uint256",
          "name": "id",
          "type": "uint256"
        }
      ],
      "name": "deletePoll",
      "outputs": [],
      "stateMutability": "nonpayable",
      "type": "function"
    },
    {
      "inputs": [
        {
          "internalType": "uint256",
          "name": "id",
          "type": "uint256"
        },
        {
          "internalType": "uint256",
          "name": "cid",
          "type": "uint256"
        }
      ],
      "name": "getContestant",
      "outputs": [
        {
          "components": [
            {
              "internalType": "uint256",
              "name": "id",
              "type": "uint256"
            },
            {
              "internalType": "string",
              "name": "image",
              "type": "string"
            },
            {
              "internalType": "string",
              "name": "name",
              "type": "string"
            },
            {
              "internalType": "address",
              "name": "voter",
              "type": "address"
            },
            {
              "internalType": "uint256",
              "name": "votes",
              "type": "uint256"
            },
            {
              "internalType": "address[]",
              "name": "voters",
              "type": "address[]"
            }
          ],
          "internalType": "struct Voting.ContestantStruct",
          "name": "",
          "type": "tuple"
        }
      ],
      "stateMutability": "view",
      "type": "function"
    },
    {
      "inputs": [
        {
          "internalType": "uint256",
          "name": "id",
          "type": "uint256"
        }
      ],
      "name": "getContestants",
      "outputs": [
        {
          "components": [
            {
              "internalType": "uint256",
              "name": "id",
              "type": "uint256"
            },
            {
              "internalType": "string",
              "name": "image",
              "type": "string"
            },
            {
              "internalType": "string",
              "name": "name",
              "type": "string"
            },
            {
              "internalType": "address",
              "name": "voter",
              "type": "address"
            },
            {
              "internalType": "uint256",
              "name": "votes",
              "type": "uint256"
            },
            {
              "internalType": "address[]",
              "name": "voters",
              "type": "address[]"
            }
          ],
          "internalType": "struct Voting.ContestantStruct[]",
          "name": "Contestants",
          "type": "tuple[]"
        }
      ],
      "stateMutability": "view",
      "type": "function"
    },
    {
      "inputs": [
        {
          "internalType": "uint256",
          "name": "id",
          "type": "uint256"
        }
      ],
      "name": "getPoll",
      "outputs": [
        {
          "components": [
            {
              "internalType": "uint256",
              "name": "id",
              "type": "uint256"
            },
            {
              "internalType": "string",
              "name": "image",
              "type": "string"
            },
            {
              "internalType": "string",
              "name": "title",
              "type": "string"
            },
            {
              "internalType": "string",
              "name": "description",
              "type": "string"
            },
            {
              "internalType": "uint256",
              "name": "votes",
              "type": "uint256"
            },
            {
              "internalType": "uint256",
              "name": "contestants",
              "type": "uint256"
            },
            {
              "internalType": "bool",
              "name": "deleted",
              "type": "bool"
            },
            {
              "internalType": "address",
              "name": "director",
              "type": "address"
            },
            {
              "internalType": "uint256",
              "name": "startsAt",
              "type": "uint256"
            },
            {
              "internalType": "uint256",
              "name": "endsAt",
              "type": "uint256"
            },
            {
              "internalType": "uint256",
              "name": "timestamp",
              "type": "uint256"
            },
            {
              "internalType": "address[]",
              "name": "voters",
              "type": "address[]"
            },
            {
              "internalType": "string[]",
              "name": "avatars",
              "type": "string[]"
            }
          ],
          "internalType": "struct Voting.PollStruct",
          "name": "",
          "type": "tuple"
        }
      ],
      "stateMutability": "view",
      "type": "function"
    },
    {
      "inputs": [],
      "name": "getPolls",
      "outputs": [
        {
          "components": [
            {
              "internalType": "uint256",
              "name": "id",
              "type": "uint256"
            },
            {
              "internalType": "string",
              "name": "image",
              "type": "string"
            },
            {
              "internalType": "string",
              "name": "title",
              "type": "string"
            },
            {
              "internalType": "string",
              "name": "description",
              "type": "string"
            },
            {
              "internalType": "uint256",
              "name": "votes",
              "type": "uint256"
            },
            {
              "internalType": "uint256",
              "name": "contestants",
              "type": "uint256"
            },
            {
              "internalType": "bool",
              "name": "deleted",
              "type": "bool"
            },
            {
              "internalType": "address",
              "name": "director",
              "type": "address"
            },
            {
              "internalType": "uint256",
              "name": "startsAt",
              "type": "uint256"
            },
            {
              "internalType": "uint256",
              "name": "endsAt",
              "type": "uint256"
            },
            {
              "internalType": "uint256",
              "name": "timestamp",
              "type": "uint256"
            },
            {
              "internalType": "address[]",
              "name": "voters",
              "type": "address[]"
            },
            {
              "internalType": "string[]",
              "name": "avatars",
              "type": "string[]"
            }
          ],
          "internalType": "struct Voting.PollStruct[]",
          "name": "Polls",
          "type": "tuple[]"
        }
      ],
      "stateMutability": "view",
      "type": "function"
    },
    {
      "inputs": [
        {
          "internalType": "uint256",
          "name": "id",
          "type": "uint256"
        },
        {
          "internalType": "string",
          "name": "image",
          "type": "string"
        },
        {
          "internalType": "string",
          "name": "title",
          "type": "string"
        },
        {
          "internalType": "string",
          "name": "description",
          "type": "string"
        },
        {
          "internalType": "uint256",
          "name": "startsAt",
          "type": "uint256"
        },
        {
          "internalType": "uint256",
          "name": "endsAt",
          "type": "uint256"
        }
      ],
      "name": "updatePoll",
      "outputs": [],
      "stateMutability": "nonpayable",
      "type": "function"
    },
    {
      "inputs": [
        {
          "internalType": "uint256",
          "name": "id",
          "type": "uint256"
        },
        {
          "internalType": "uint256",
          "name": "cid",
          "type": "uint256"
        }
      ],
      "name": "vote",
      "outputs": [],
      "stateMutability": "nonpayable",
      "type": "function"
    }
  ],
  "bytecode": "0x608060405234801561001057600080fd5b50612496806100206000396000f3fe608060405234801561001057600080fd5b50600436106100935760003560e01c806366dd51dc1161006657806366dd51dc146100fe578063b384abef14610111578063cee9dc4514610124578063d343641114610144578063f0d0bc451461016457600080fd5b8063029433f014610098578063120fe89b146100ad5780631a8cbcaa146100cb5780631f35b51d146100eb575b600080fd5b6100ab6100a6366004611d37565b610177565b005b6100b5610452565b6040516100c29190611fb3565b60405180910390f35b6100de6100d9366004612015565b6108cd565b6040516100c2919061202e565b6100ab6100f9366004612015565b610c4f565b6100ab61010c366004612048565b610d30565b6100ab61011f3660046120b5565b610fba565b610137610132366004612015565b611294565b6040516100c2919061214e565b6101576101523660046120b5565b611598565b6040516100c291906121a3565b6100ab6101723660046121b6565b611793565b60008681526002602052604090205460ff166101ae5760405162461bcd60e51b81526004016101a590612250565b60405180910390fd5b60008681526003602052604090206006015461010090046001600160a01b031633146102125760405162461bcd60e51b8152602060048201526013602482015272556e617574686f72697a656420656e7469747960681b60448201526064016101a5565b600084511161025b5760405162461bcd60e51b81526020600482015260156024820152745469746c652063616e6e6f7420626520656d70747960581b60448201526064016101a5565b60008351116102ac5760405162461bcd60e51b815260206004820152601b60248201527f4465736372697074696f6e2063616e6e6f7420626520656d707479000000000060448201526064016101a5565b60008551116102fd5760405162461bcd60e51b815260206004820152601960248201527f496d6167652055524c2063616e6e6f7420626520656d7074790000000000000060448201526064016101a5565b60008681526003602052604090206006015460ff16156103565760405162461bcd60e51b8152602060048201526014602482015273141bdb1b08185b1c9958591e4819195b195d195960621b60448201526064016101a5565b6000868152600360205260409020600401546001116103875760405162461bcd60e51b81526004016101a590612278565b8181116103e75760405162461bcd60e51b815260206004820152602860248201527f456e642064617465206d7573742062652067726561746572207468616e207374604482015267617274206461746560c01b60648201526084016101a5565b60008681526003602052604090206002016104028582612331565b5060008681526003602081905260409091200161041f8482612331565b50600086815260036020526040902060078101839055600881018290556001016104498682612331565b50505050505050565b6060600060015b600054811161049b5760008181526003602052604090206006015460ff16610489578161048581612407565b9250505b8061049381612407565b915050610459565b508067ffffffffffffffff8111156104b5576104b5611c94565b6040519080825280602002602001820160405280156104ee57816020015b6104db611abc565b8152602001906001900390816104d35790505b509150600060015b60005481116108c75760008181526003602052604090206006015460ff166108b55760036000828152602001908152602001600020604051806101a001604052908160008201548152602001600182018054610551906122a8565b80601f016020809104026020016040519081016040528092919081815260200182805461057d906122a8565b80156105ca5780601f1061059f576101008083540402835291602001916105ca565b820191906000526020600020905b8154815290600101906020018083116105ad57829003601f168201915b505050505081526020016002820180546105e3906122a8565b80601f016020809104026020016040519081016040528092919081815260200182805461060f906122a8565b801561065c5780601f106106315761010080835404028352916020019161065c565b820191906000526020600020905b81548152906001019060200180831161063f57829003601f168201915b50505050508152602001600382018054610675906122a8565b80601f01602080910402602001604051908101604052809291908181526020018280546106a1906122a8565b80156106ee5780601f106106c3576101008083540402835291602001916106ee565b820191906000526020600020905b8154815290600101906020018083116106d157829003601f168201915b505050918352505060048201546020808301919091526005830154604080840191909152600684015460ff8116151560608501526001600160a01b0361010091829004166080850152600785015460a0850152600885015460c0850152600985015460e0850152600a85018054835181860281018601909452808452919094019391928301828280156107aa57602002820191906000526020600020905b81546001600160a01b0316815260019091019060200180831161078c575b50505050508152602001600b8201805480602002602001604051908101604052809291908181526020016000905b828210156108845783829060005260206000200180546107f7906122a8565b80601f0160208091040260200160405190810160405280929190818152602001828054610823906122a8565b80156108705780601f1061084557610100808354040283529160200191610870565b820191906000526020600020905b81548152906001019060200180831161085357829003601f168201915b5050505050815260200190600101906107d8565b5050509152508590508361089781612407565b9450815181106108a9576108a9612420565b60200260200101819052505b806108bf81612407565b9150506104f6565b50505090565b6108d5611abc565b60036000838152602001908152602001600020604051806101a00160405290816000820154815260200160018201805461090e906122a8565b80601f016020809104026020016040519081016040528092919081815260200182805461093a906122a8565b80156109875780601f1061095c57610100808354040283529160200191610987565b820191906000526020600020905b81548152906001019060200180831161096a57829003601f168201915b505050505081526020016002820180546109a0906122a8565b80601f01602080910402602001604051908101604052809291908181526020018280546109cc906122a8565b8015610a195780601f106109ee57610100808354040283529160200191610a19565b820191906000526020600020905b8154815290600101906020018083116109fc57829003601f168201915b50505050508152602001600382018054610a32906122a8565b80601f0160208091040260200160405190810160405280929190818152602001828054610a5e906122a8565b8015610aab5780601f10610a8057610100808354040283529160200191610aab565b820191906000526020600020905b815481529060010190602001808311610a8e57829003601f168201915b505050918352505060048201546020808301919091526005830154604080840191909152600684015460ff8116151560608501526001600160a01b0361010091829004166080850152600785015460a0850152600885015460c0850152600985015460e0850152600a8501805483518186028101860190945280845291909401939192830182828015610b6757602002820191906000526020600020905b81546001600160a01b03168152600190910190602001808311610b49575b50505050508152602001600b8201805480602002602001604051908101604052809291908181526020016000905b82821015610c41578382906000526020600020018054610bb4906122a8565b80601f0160208091040260200160405190810160405280929190818152602001828054610be0906122a8565b8015610c2d5780601f10610c0257610100808354040283529160200191610c2d565b820191906000526020600020905b815481529060010190602001808311610c1057829003601f168201915b505050505081526020019060010190610b95565b505050915250909392505050565b60008181526002602052604090205460ff16610c7d5760405162461bcd60e51b81526004016101a590612250565b60008181526003602052604090206006015461010090046001600160a01b03163314610ce15760405162461bcd60e51b8152602060048201526013602482015272556e617574686f72697a656420656e7469747960681b60448201526064016101a5565b600081815260036020526040902060040154600111610d125760405162461bcd60e51b81526004016101a590612278565b6000908152600360205260409020600601805460ff19166001179055565b60008381526002602052604090205460ff16610d5e5760405162461bcd60e51b81526004016101a590612250565b6000825111610da65760405162461bcd60e51b81526020600482015260146024820152736e616d652063616e6e6f7420626520656d70747960601b60448201526064016101a5565b6000815111610def5760405162461bcd60e51b8152602060048201526015602482015274696d6167652063616e6e6f7420626520656d70747960581b60448201526064016101a5565b600083815260036020526040902060040154600111610e205760405162461bcd60e51b81526004016101a590612278565b600083815260056020908152604080832033845290915290205460ff1615610e7e5760405162461bcd60e51b8152602060048201526011602482015270105b1c9958591e4818dbdb9d195cdd1959607a1b60448201526064016101a5565b60018054906000610e8e83612407565b9190505550610e9b611b2f565b6040808201849052602080830184815233606085015260018054855260008881526006845284812086518252909352929091208351815590518392820190610ee39082612331565b5060408201516002820190610ef89082612331565b5060608201516003820180546001600160a01b0319166001600160a01b039092169190911790556080820151600482015560a08201518051610f44916005840191602090910190611b6e565b50505060008481526005602090815260408083203384528252808320805460ff1916600190811790915587845260038352908320600b01805491820181558352912001610f918382612331565b506000848152600360205260408120600501805491610faf83612407565b919050555050505050565b60008281526002602052604090205460ff16610fe85760405162461bcd60e51b81526004016101a590612250565b600082815260046020908152604080832033845290915290205460ff16156110425760405162461bcd60e51b815260206004820152600d60248201526c105b1c9958591e481d9bdd1959609a1b60448201526064016101a5565b60008281526003602052604090206006015460ff16156110995760405162461bcd60e51b8152602060048201526012602482015271506f6c6c206e6f7420617661696c61626c6560701b60448201526064016101a5565b6000828152600360205260409020600501546001106110f35760405162461bcd60e51b81526020600482015260166024820152754e6f7420656e6f75676820636f6e74657374616e747360501b60448201526064016101a5565b60008281526003602052604090206007015461110d611a9d565b101580156111325750600082815260036020526040902060080154611130611a9d565b105b61117e5760405162461bcd60e51b815260206004820152601960248201527f566f74696e67206d75737420626520696e2073657373696f6e0000000000000060448201526064016101a5565b600082815260036020526040812060040180549161119b83612407565b90915550506000828152600360209081526040808320600a0180546001810182559084528284200180546001600160a01b031916331790558483526006825280832084845290915281206004018054916111f483612407565b9091555050600082815260066020908152604080832084845282528083206005018054600181810183559185528385200180546001600160a01b03191633908117909155868552600484528285208186529093529220805460ff19169092179091557f4d99b957a2bc29a30ebd96a7be8e68fe50a3c701db28a91436490b7d53870ca461127f611a9d565b60405190815260200160405180910390a25050565b6060600060015b60015481116112e55760008481526006602090815260408083208484529091529020548190036112d357816112cf81612407565b9250505b806112dd81612407565b91505061129b565b508067ffffffffffffffff8111156112ff576112ff611c94565b60405190808252806020026020018201604052801561133857816020015b611325611b2f565b81526020019060019003908161131d5790505b509150600060015b600154811161159057600085815260066020908152604080832084845290915290205481900361157e576000858152600660209081526040808320848452825291829020825160c081019093528054835260018101805491928401916113a5906122a8565b80601f01602080910402602001604051908101604052809291908181526020018280546113d1906122a8565b801561141e5780601f106113f35761010080835404028352916020019161141e565b820191906000526020600020905b81548152906001019060200180831161140157829003601f168201915b50505050508152602001600282018054611437906122a8565b80601f0160208091040260200160405190810160405280929190818152602001828054611463906122a8565b80156114b05780601f10611485576101008083540402835291602001916114b0565b820191906000526020600020905b81548152906001019060200180831161149357829003601f168201915b505050505081526020016003820160009054906101000a90046001600160a01b03166001600160a01b03166001600160a01b03168152602001600482015481526020016005820180548060200260200160405190810160405280929190818152602001828054801561154b57602002820191906000526020600020905b81546001600160a01b0316815260019091019060200180831161152d575b50505050508152505084838061156090612407565b94508151811061157257611572612420565b60200260200101819052505b8061158881612407565b915050611340565b505050919050565b6115a0611b2f565b6000838152600660209081526040808320858452825291829020825160c081019093528054835260018101805491928401916115db906122a8565b80601f0160208091040260200160405190810160405280929190818152602001828054611607906122a8565b80156116545780601f1061162957610100808354040283529160200191611654565b820191906000526020600020905b81548152906001019060200180831161163757829003601f168201915b5050505050815260200160028201805461166d906122a8565b80601f0160208091040260200160405190810160405280929190818152602001828054611699906122a8565b80156116e65780601f106116bb576101008083540402835291602001916116e6565b820191906000526020600020905b8154815290600101906020018083116116c957829003601f168201915b505050505081526020016003820160009054906101000a90046001600160a01b03166001600160a01b03166001600160a01b03168152602001600482015481526020016005820180548060200260200160405190810160405280929190818152602001828054801561178157602002820191906000526020600020905b81546001600160a01b03168152600190910190602001808311611763575b50505050508152505090505b92915050565b60008451116117d85760405162461bcd60e51b8152602060048201526011602482015270151a5d1b19481a5cc81c995c5d5a5c9959607a1b60448201526064016101a5565b60008351116118295760405162461bcd60e51b815260206004820152601760248201527f4465736372697074696f6e20697320726571756972656400000000000000000060448201526064016101a5565b600085511161186e5760405162461bcd60e51b8152602060048201526011602482015270125b5859d9481a5cc81c995c5d5a5c9959607a1b60448201526064016101a5565b600082116118c85760405162461bcd60e51b815260206004820152602160248201527f53746172742064617465206d7573742062652067726561746572207468616e206044820152600360fc1b60648201526084016101a5565b8181116119285760405162461bcd60e51b815260206004820152602860248201527f456e642064617465206d7573742062652067726561746572207468616e207374604482015267617274204461746560c01b60648201526084016101a5565b60008054908061193783612407565b9190505550611944611abc565b6000805480835260408084018890526060840187905260208085018a8152610100860188905261012086018790523360e0870152426101408701529284526003905290912082518155905182919060018201906119a19082612331565b50604082015160028201906119b69082612331565b50606082015160038201906119cb9082612331565b506080820151600482015560a0820151600582015560c082015160068201805460e08501516001600160a81b0319909116921515610100600160a81b031916929092176101006001600160a01b0390931683021790558201516007820155610120820151600882015561014082015160098201556101608201518051611a5b91600a840191602090910190611b6e565b506101808201518051611a7891600b840191602090910190611bd3565b505090516000908152600260205260409020805460ff19166001179055505050505050565b6000611aab426103e8612436565b611ab7906103e861244d565b905090565b604051806101a0016040528060008152602001606081526020016060815260200160608152602001600081526020016000815260200160001515815260200160006001600160a01b0316815260200160008152602001600081526020016000815260200160608152602001606081525090565b6040518060c0016040528060008152602001606081526020016060815260200160006001600160a01b0316815260200160008152602001606081525090565b828054828255906000526020600020908101928215611bc3579160200282015b82811115611bc357825182546001600160a01b0319166001600160a01b03909116178255602090920191600190910190611b8e565b50611bcf929150611c25565b5090565b828054828255906000526020600020908101928215611c19579160200282015b82811115611c195782518290611c099082612331565b5091602001919060010190611bf3565b50611bcf929150611c3a565b5b80821115611bcf5760008155600101611c26565b80821115611bcf576000611c4e8282611c57565b50600101611c3a565b508054611c63906122a8565b6000825580601f10611c73575050565b601f016020900490600052602060002090810190611c919190611c25565b50565b634e487b7160e01b600052604160045260246000fd5b600082601f830112611cbb57600080fd5b813567ffffffffffffffff80821115611cd657611cd6611c94565b604051601f8301601f19908116603f01168101908282118183101715611cfe57611cfe611c94565b81604052838152866020858801011115611d1757600080fd5b836020870160208301376000602085830101528094505050505092915050565b60008060008060008060c08789031215611d5057600080fd5b86359550602087013567ffffffffffffffff80821115611d6f57600080fd5b611d7b8a838b01611caa565b96506040890135915080821115611d9157600080fd5b611d9d8a838b01611caa565b95506060890135915080821115611db357600080fd5b50611dc089828a01611caa565b9350506080870135915060a087013590509295509295509295565b6000815180845260005b81811015611e0157602081850181015186830182015201611de5565b506000602082860101526020601f19601f83011685010191505092915050565b600081518084526020808501945080840160005b83811015611e5a5781516001600160a01b031687529582019590820190600101611e35565b509495945050505050565b600081518084526020808501808196508360051b8101915082860160005b85811015611ead578284038952611e9b848351611ddb565b98850198935090840190600101611e83565b5091979650505050505050565b60006101a0825184526020830151816020860152611eda82860182611ddb565b91505060408301518482036040860152611ef48282611ddb565b91505060608301518482036060860152611f0e8282611ddb565b9150506080830151608085015260a083015160a085015260c0830151611f3860c086018215159052565b5060e0830151611f5360e08601826001600160a01b03169052565b506101008381015190850152610120808401519085015261014080840151908501526101608084015185830382870152611f8d8382611e21565b925050506101808084015185830382870152611fa98382611e65565b9695505050505050565b6000602080830181845280855180835260408601915060408160051b870101925083870160005b8281101561200857603f19888603018452611ff6858351611eba565b94509285019290850190600101611fda565b5092979650505050505050565b60006020828403121561202757600080fd5b5035919050565b6020815260006120416020830184611eba565b9392505050565b60008060006060848603121561205d57600080fd5b83359250602084013567ffffffffffffffff8082111561207c57600080fd5b61208887838801611caa565b9350604086013591508082111561209e57600080fd5b506120ab86828701611caa565b9150509250925092565b600080604083850312156120c857600080fd5b50508035926020909101359150565b805182526000602082015160c060208501526120f660c0850182611ddb565b90506040830151848203604086015261210f8282611ddb565b91505060018060a01b0360608401511660608501526080830151608085015260a083015184820360a08601526121458282611e21565b95945050505050565b6000602080830181845280855180835260408601915060408160051b870101925083870160005b8281101561200857603f198886030184526121918583516120d7565b94509285019290850190600101612175565b60208152600061204160208301846120d7565b600080600080600060a086880312156121ce57600080fd5b853567ffffffffffffffff808211156121e657600080fd5b6121f289838a01611caa565b9650602088013591508082111561220857600080fd5b61221489838a01611caa565b9550604088013591508082111561222a57600080fd5b5061223788828901611caa565b9598949750949560608101359550608001359392505050565b6020808252600e908201526d141bdb1b081b9bdd08199bdd5b9960921b604082015260600190565b602080825260169082015275506f6c6c2068617320766f74657320616c726561647960501b604082015260600190565b600181811c908216806122bc57607f821691505b6020821081036122dc57634e487b7160e01b600052602260045260246000fd5b50919050565b601f82111561232c57600081815260208120601f850160051c810160208610156123095750805b601f850160051c820191505b8181101561232857828155600101612315565b5050505b505050565b815167ffffffffffffffff81111561234b5761234b611c94565b61235f8161235984546122a8565b846122e2565b602080601f831160018114612394576000841561237c5750858301515b600019600386901b1c1916600185901b178555612328565b600085815260208120601f198616915b828110156123c3578886015182559484019460019091019084016123a4565b50858210156123e15787850151600019600388901b60f8161c191681555b5050505050600190811b01905550565b634e487b7160e01b600052601160045260246000fd5b600060018201612419576124196123f1565b5060010190565b634e487b7160e01b600052603260045260246000fd5b808202811582820484141761178d5761178d6123f1565b8082018082111561178d5761178d6123f156fea2646970667358221220ebccd1e7819264bb9ca25914f6ee900ca3f1f989e8f6b36b9d79da17a0ebd3f964736f6c63430008110033",
  "linkReferences": {},
  "deployedLinkReferences": {}
}